:03000000020800F3
:0C080000787FE4F6D8FD758109020847F6
:0408A4000208000046
:0300030002088C64
:10088C00C0E00509E5097002050814F590D0E032C6
:08089C00D2AFD2A8D28880FE81
:10080C0002089CE493A3F8E493A34003F68001F25E
:10081C0008DFF48029E493A3F85407240CC8C333ED
:10082C00C4540F4420C8834004F456800146F6DFBC
:10083C00E4800B01020408102040809008A4E47EA0
:10084C00019360BCA3FF543F30E509541FFEE493B1
:10085C00A360010ECF54C025E060A840B8E493A378
:10086C00FAE493A3F8E493A3C8C582C8CAC583CAA3
:10087C00F0A3C8C582C8CAC583CADFE9DEE780BE5B
:0108A800004F
:00000001FF
