:03000000020800F3
:0C080000787FE4F6D8FD75810F020847F0
:10093E004D7568616D6D616420496C79617300322B
:0B094E0031707763736532303535007F
:0E0996000308FF093E030BFF094D020E00008F
:0D091F0014F9120959FF1209847F107E2778
:10092C00E4FDFCC3ED9FEC9E50070DBD00010C8057
:01093C00F2C8
:01093D002297
:10097200C2B78FA0D2B67F967E0012092CC2B602F1
:02098200092C3E
:10098400D2B78FA0D2B67F967E0012092CC2B602CF
:02099400092C2C
:1008E8007F307E001209727F2C7E0112092C7F3026
:1008F8001E1209727F8A7E0212092C7F387E00122E
:1009080009727F0C7E001209727F017E0012097243
:070918007F067E0002097258
:10088C001208E87F807E00120972E4F50EF50FABBA
:10089C0008050AE50AAA097002050912091F050FC5
:1008AC00E50F7002050EC3940EE50E940040E07F38
:1008BC00C07E00120972E4F50EF50FAB0B050DE5C9
:1008CC000DAA0C7002050C12091F050FE50F700222
:0C08DC00050EC3940CE50E940040E022D1
:10080C0002088CE493A3F8E493A34003F68001F26E
:10081C0008DFF48029E493A3F85407240CC8C333ED
:10082C00C4540F4420C8834004F456800146F6DFBC
:10083C00E4800B0102040810204080900996E47EAD
:10084C00019360BCA3FF543F30E509541FFEE493B1
:10085C00A360010ECF54C025E060A840B8E493A378
:10086C00FAE493A3F8E493A3C8C582C8CAC583CAA3
:10087C00F0A3C8C582C8CAC583CADFE9DEE780BE5B
:0109A4000052
:10095900BB010689828A83E0225002E722BBFE029C
:09096900E32289828A83E49322CF
:00000001FF
