:0300000002088073
:0C088000787FE4F6D8FD758107020800BF
:1008000020A00D20A10A20A207E4F590D29780F045
:1008100020A00D20A10A30A207E4F590D29680E036
:1008200020A00D30A10A20A207E4F590D29580D037
:1008300020A00D30A10A30A207E4F590D29480C028
:1008400030A00D20A10A20A207E4F590D29380B039
:1008500030A00D20A10A30A207E4F590D29280A02A
:1008600030A00D30A10A20A207E4F590D29180902B
:1008700030A08D30A18A30A287E4F590D29080809C
:00000001FF
