:03000000020800F3
:0C080000787FE4F6D8FD75810B020847F4
:0808E90002080000020A0000F1
:0E08DA00E4FFFE0FBF00010EBE27F8BF10F5B1
:0108E80022ED
:1008C800E4FDFC1208DA0DBD00010CED64144C7057
:0108D800F22D
:0108D90022FC
:10088C00E4F508F509D3E5099490E508940050F0D7
:10089C00E4F50AF50B1208C8E509450BF590050BB4
:1008AC00E50B7002050AD39409E50A940040E6743E
:0C08BC00102509F509E43508F50880C98D
:10080C0002088CE493A3F8E493A34003F68001F26E
:10081C0008DFF48029E493A3F85407240CC8C333ED
:10082C00C4540F4420C8834004F456800146F6DFBC
:10083C00E4800B01020408102040809008E9E47E5B
:10084C00019360BCA3FF543F30E509541FFEE493B1
:10085C00A360010ECF54C025E060A840B8E493A378
:10086C00FAE493A3F8E493A3C8C582C8CAC583CAA3
:10087C00F0A3C8C582C8CAC583CADFE9DEE780BE5B
:0108F1000006
:00000001FF
