:03000000020800F3
:0C080000787FE4F6D8FD758151020847AE
:10090A00020C00000242000020340E0032003C00BB
:10091A00460050005A0064006E0064005A005000FD
:10092A0046003C00320032003C00460050005A00AB
:10093A0064006E0064005A00500046003C00320C0D
:10094A00440064005A00500046003C00320408008B
:03095A003200C8A0
:10095E00E4F542F543C3E5439FE5429E500A054345
:09096E00E54370F1054280ED2221
:0300030002097778
:10097700C0E0050DE50D7002050C6403450C70041D
:07098700F50CF50DD0E03284
:06088C00E50D450C702390
:10089200F550F551F550F551E55125E0240EF808D3
:1008A200E6F5900551E55170020550641945507006
:0108B200E75E
:0A08B300804DE50D6401450C702333
:1008BD00F550F551F550F551E55125E02444F80872
:1008CD00E6F5900551E551700205506406455070EE
:0108DD00E733
:0208DE00802276
:1008E000E4F550F551F550F551E55125E02408F8AF
:1008F00008E6F5900551E551700205506402455037
:0909000070E77FF47E0112095E2C
:0109090022CB
:0B098E00D2AFD2A8D28812088C80FBE8
:10080C0002098EE493A3F8E493A34003F68001F26B
:10081C0008DFF48029E493A3F85407240CC8C333ED
:10082C00C4540F4420C8834004F456800146F6DFBC
:10083C00E4800B010204081020408090090AE47E39
:10084C00019360BCA3FF543F30E509541FFEE493B1
:10085C00A360010ECF54C025E060A840B8E493A378
:10086C00FAE493A3F8E493A3C8C582C8CAC583CAA3
:10087C00F0A3C8C582C8CAC583CADFE9DEE780BE5B
:01095D000099
:00000001FF
