:1009B8003801060C8254656D7065726174757265D4
:0209C8003A00F3
:1008F60078097C007D007BFF7A0979B87E007F0548
:100906001208D0780E7C007D007BFF7A0979BD7EC7
:10091600007F0D1208D07590FFE4F5A0F508740964
:100926002508F8E6FF1209D61209940508E508C35A
:10093600940540EAD2B2D2B0D2B1C2B1120994D271
:10094600B120B2FDC2B085901BAF1B12095F7FE8D4
:090956007E03120998D2B080E181
:0A09D6008FA0C2B7120990C2B6222A
:0A09E0008FA0D2B7120990C2B62210
:02095F008F1CEB
:100961007FC01209D6E51C75F00A8425E02430FF0A
:10097100E51C75F00A8485F01D7430251DF51D7583
:0F0981001EDF1209E0AF1D1209E07F430209E0FB
:08099000C2A6D2B67F017E0071
:10099800E4FDFCC3ED9FEC9E5015E4FBFA0BBB0095
:0F09A800010ABA05F8BB5FF50DBD00010C80E434
:0109B700221D
:030000000209CA28
:0C09CA00787FE4F6D8FD75811E0208F667
:10080000E709F608DFFA8046E709F208DFFA803EDA
:1008100088828C83E709F0A3DFFA8032E309F608C7
:10082000DFFA8078E309F208DFFA807088828C832F
:10083000E309F0A3DFFA806489828A83E0A3F608E3
:10084000DFFA805889828A83E0A3F208DFFA804CBD
:1008500080D280FA80C680D4806980F28033801094
:1008600080A680EA809A80A880DA80E280CA8033FD
:1008700089828A83ECFAE493A3C8C582C8CCC58375
:10088000CCF0A3C8C582C8CCC583CCDFE9DEE78045
:100890000D89828A83E493A3F608DFF9ECFAA9F0C4
:1008A000EDFB2289828A83ECFAE0A3C8C582C8CC1A
:1008B000C583CCF0A3C8C582C8CCC583CCDFEADE33
:1008C000E880DB89828A83E493A3F208DFF980CC95
:1008D00088F0EF60010E4E60C388F0ED2402B4048E
:1008E0000050B9F582EB2402B4040050AF23234535
:0608F00082239008507302
:00000001FF
