:03000000020800F3
:0C080000787FE4F6D8FD758109020847F6
:0408CF00020800001B
:0308D400D28C22A1
:0708C10075890175A8822270
:03000B000208C820
:0708C800758C3C758AAF320C
:10088C001208D41208C1308DFDE4F508F5091208E0
:10089C00C11208D4E509640245087003208D1305C4
:1008AC0009E50970020508C39403E5086480948087
:0508BC0040DCB2B02297
:10080C0002088CE493A3F8E493A34003F68001F26E
:10081C0008DFF48029E493A3F85407240CC8C333ED
:10082C00C4540F4420C8834004F456800146F6DFBC
:10083C00E4800B01020408102040809008CFE47E75
:10084C00019360BCA3FF543F30E509541FFEE493B1
:10085C00A360010ECF54C025E060A840B8E493A378
:10086C00FAE493A3F8E493A3C8C582C8CAC583CAA3
:10087C00F0A3C8C582C8CAC583CADFE9DEE780BE5B
:0108D3000024
:00000001FF
