:030000000208EB08
:0C08EB00787FE4F6D8FD75810B0208F759
:1008D300E4FDFCC3ED9FEE6480F8EC648098500760
:0708E3000DBD00010C80ECCB
:0108EA0022EB
:0B08F7001208008509B0850BA080F5F9
:10080000C290D291D292D29320940C750A00750BAB
:10081000017508007509F920950C750A00750B0221
:100820007508007509A420960C750A00750B0375F0
:1008300008007509B0D290C291D292D29320940C44
:10084000750A00750B0475080075099920950C75DB
:100850000A00750B0575080075099220960C750A3B
:1008600000750B06750800750982D290D291C2926C
:10087000D29320940C750A00750B07750800750952
:10088000F820950C750A00750B087508007509802D
:1008900020960C750A00750B09750800750998D229
:1008A00090D291D292C29320940C750A00750BFFDE
:1008B0007508007509FF20950AE4F50AF50BF5089F
:1008C0007509C020960C750A00750BFF7508007538
:0308D00009FF22FB
:00000001FF
