:030000000208F6FD
:0C08F600787FE4F6D8FD75813B02093DD7
:100A3B00008000C000EE00FF00EE00C00080004010
:100A4B000011000000110040008000C000EE00FF0C
:100A5B0000EE00C0008000400011000000110040BB
:040AEA00023A0001CB
:060A91008B907F0A7E003D
:100A9700E4FDFCC3ED9FEC9E50070DBD00010C80EB
:010AA700F25C
:010AA800222B
:100A080078087C007D007BFF7A0A793B7E007F3086
:100A18001208D0E4FBFAEB25E02408F808E6F59084
:100A28007F0F7E00120A970BBB00010AEB64174A7E
:020A380070E468
:010A3A002299
:0F0AD400E4F5907F64FE120A977590FF020A976F
:100A6B00E4FBFA120A910BBB00010AE4B503F4EAAA
:100A7B00B401F07A007BFF120A91EB1B70011ABADA
:050A8B00FFF5BBFFF2C6
:010A90002243
:100AC000E4FBFA120A910BBB00010AE4B503F4EA55
:030AD000B401F07E
:010AD3002200
:070AE300D288D2A8D2AF2295
:03000300020AA945
:100AA900C0E0053BE53B7002053A6404453A700431
:070AB900F53AF53BD0E032F5
:10098200120AE3C3E53B9403E53A64809480500D78
:1009920020B20A053BE53B7013053A800FE53B6444
:1009A20003453A700720B204F53AF53BE53B453A78
:1009B200700F20B207F53A753B0180C7120A088012
:1009C200C2E53B6401453A700F20B207F53A753B28
:1009D2000280B0120AD480ABE53B6402453A700F44
:1009E20020B207F53A753B038099120A6B8094E5B1
:1009F2003B6403453A708C20B206F53AF53B80839E
:060A0200120AC002098582
:10090200020982E493A3F8E493A34003F68001F280
:1009120008DFF48029E493A3F85407240CC8C333F6
:10092200C4540F4420C8834004F456800146F6DFC5
:10093200E4800B0102040810204080900AEAE47E61
:10094200019360BCA3FF543F30E509541FFEE493BA
:10095200A360010ECF54C025E060A840B8E493A381
:10096200FAE493A3F8E493A3C8C582C8CAC583CAAC
:10097200F0A3C8C582C8CAC583CADFE9DEE780BE64
:010AEE000007
:10080000E709F608DFFA8046E709F208DFFA803EDA
:1008100088828C83E709F0A3DFFA8032E309F608C7
:10082000DFFA8078E309F208DFFA807088828C832F
:10083000E309F0A3DFFA806489828A83E0A3F608E3
:10084000DFFA805889828A83E0A3F208DFFA804CBD
:1008500080D280FA80C680D4806980F28033801094
:1008600080A680EA809A80A880DA80E280CA8033FD
:1008700089828A83ECFAE493A3C8C582C8CCC58375
:10088000CCF0A3C8C582C8CCC583CCDFE9DEE78045
:100890000D89828A83E493A3F608DFF9ECFAA9F0C4
:1008A000EDFB2289828A83ECFAE0A3C8C582C8CC1A
:1008B000C583CCF0A3C8C582C8CCC583CCDFEADE33
:1008C000E880DB89828A83E493A3F208DFF980CC95
:1008D00088F0EF60010E4E60C388F0ED2402B4048E
:1008E0000050B9F582EB2402B4040050AF23234535
:0608F00082239008507302
:00000001FF
